{
  "contractName": "BridgeBase",
  "abi": [
    {
      "constant": true,
      "inputs": [
        {
          "name": "",
          "type": "address"
        },
        {
          "name": "",
          "type": "uint256"
        }
      ],
      "name": "processedNonces",
      "outputs": [
        {
          "name": "",
          "type": "bool"
        }
      ],
      "payable": false,
      "stateMutability": "view",
      "type": "function"
    },
    {
      "constant": true,
      "inputs": [],
      "name": "admin",
      "outputs": [
        {
          "name": "",
          "type": "address"
        }
      ],
      "payable": false,
      "stateMutability": "view",
      "type": "function"
    },
    {
      "constant": true,
      "inputs": [],
      "name": "token",
      "outputs": [
        {
          "name": "",
          "type": "address"
        }
      ],
      "payable": false,
      "stateMutability": "view",
      "type": "function"
    },
    {
      "inputs": [
        {
          "name": "_token",
          "type": "address"
        }
      ],
      "payable": false,
      "stateMutability": "nonpayable",
      "type": "constructor"
    },
    {
      "anonymous": false,
      "inputs": [
        {
          "indexed": false,
          "name": "from",
          "type": "address"
        },
        {
          "indexed": false,
          "name": "to",
          "type": "address"
        },
        {
          "indexed": false,
          "name": "amount",
          "type": "uint256"
        },
        {
          "indexed": false,
          "name": "date",
          "type": "uint256"
        },
        {
          "indexed": false,
          "name": "nonce",
          "type": "uint256"
        },
        {
          "indexed": false,
          "name": "signature",
          "type": "bytes"
        },
        {
          "indexed": true,
          "name": "step",
          "type": "uint8"
        }
      ],
      "name": "Transfer",
      "type": "event"
    },
    {
      "constant": false,
      "inputs": [
        {
          "name": "to",
          "type": "address"
        },
        {
          "name": "amount",
          "type": "uint256"
        },
        {
          "name": "nonce",
          "type": "uint256"
        },
        {
          "name": "signature",
          "type": "bytes"
        }
      ],
      "name": "burn",
      "outputs": [],
      "payable": false,
      "stateMutability": "nonpayable",
      "type": "function"
    },
    {
      "constant": false,
      "inputs": [
        {
          "name": "from",
          "type": "address"
        },
        {
          "name": "to",
          "type": "address"
        },
        {
          "name": "amount",
          "type": "uint256"
        },
        {
          "name": "nonce",
          "type": "uint256"
        },
        {
          "name": "signature",
          "type": "bytes"
        }
      ],
      "name": "mint",
      "outputs": [],
      "payable": false,
      "stateMutability": "nonpayable",
      "type": "function"
    }
  ],
  "bytecode": "0x608060405234801561001057600080fd5b50604051602080610da78339810180604052602081101561003057600080fd5b8101908080519060200190929190505050336000806101000a81548173ffffffffffffffffffffffffffffffffffffffff021916908373ffffffffffffffffffffffffffffffffffffffff16021790555080600160006101000a81548173ffffffffffffffffffffffffffffffffffffffff021916908373ffffffffffffffffffffffffffffffffffffffff16021790555050610cd5806100d26000396000f3fe60806040526004361061006d576000357c0100000000000000000000000000000000000000000000000000000000900463ffffffff16806352555702146100725780637cc702401461014c5780638a94b05f146101bf578063f851a44014610279578063fc0c546a146102d0575b600080fd5b34801561007e57600080fd5b5061014a600480360360a081101561009557600080fd5b81019080803573ffffffffffffffffffffffffffffffffffffffff169060200190929190803573ffffffffffffffffffffffffffffffffffffffff16906020019092919080359060200190929190803590602001909291908035906020019064010000000081111561010657600080fd5b82018360208201111561011857600080fd5b8035906020019184600183028401116401000000008311171561013a57600080fd5b9091929391929390505050610327565b005b34801561015857600080fd5b506101a56004803603604081101561016f57600080fd5b81019080803573ffffffffffffffffffffffffffffffffffffffff169060200190929190803590602001909291905050506107ef565b604051808215151515815260200191505060405180910390f35b3480156101cb57600080fd5b50610277600480360360808110156101e257600080fd5b81019080803573ffffffffffffffffffffffffffffffffffffffff16906020019092919080359060200190929190803590602001909291908035906020019064010000000081111561023357600080fd5b82018360208201111561024557600080fd5b8035906020019184600183028401116401000000008311171561026757600080fd5b909192939192939050505061081e565b005b34801561028557600080fd5b5061028e610b34565b604051808273ffffffffffffffffffffffffffffffffffffffff1673ffffffffffffffffffffffffffffffffffffffff16815260200191505060405180910390f35b3480156102dc57600080fd5b506102e5610b59565b604051808273ffffffffffffffffffffffffffffffffffffffff1673ffffffffffffffffffffffffffffffffffffffff16815260200191505060405180910390f35b60006103e687878787604051602001808573ffffffffffffffffffffffffffffffffffffffff1673ffffffffffffffffffffffffffffffffffffffff166c010000000000000000000000000281526014018473ffffffffffffffffffffffffffffffffffffffff1673ffffffffffffffffffffffffffffffffffffffff166c0100000000000000000000000002815260140183815260200182815260200194505050505060405160208183030381529060405280519060200120610b7f565b90508673ffffffffffffffffffffffffffffffffffffffff1661044d8285858080601f016020809104026020016040519081016040528093929190818152602001838380828437600081840152601f19601f82011690508083019250505050505050610bd7565b73ffffffffffffffffffffffffffffffffffffffff161415156104d8576040517f08c379a000000000000000000000000000000000000000000000000000000000815260040180806020018281038252600f8152602001807f77726f6e67207369676e6174757265000000000000000000000000000000000081525060200191505060405180910390fd5b60001515600260008973ffffffffffffffffffffffffffffffffffffffff1673ffffffffffffffffffffffffffffffffffffffff168152602001908152602001600020600086815260200190815260200160002060009054906101000a900460ff1615151415156105b1576040517f08c379a000000000000000000000000000000000000000000000000000000000815260040180806020018281038252601a8152602001807f7472616e7366657220616c72656164792070726f63657373656400000000000081525060200191505060405180910390fd5b6001600260008973ffffffffffffffffffffffffffffffffffffffff1673ffffffffffffffffffffffffffffffffffffffff168152602001908152602001600020600086815260200190815260200160002060006101000a81548160ff021916908315150217905550600160009054906101000a900473ffffffffffffffffffffffffffffffffffffffff1673ffffffffffffffffffffffffffffffffffffffff166340c10f1987876040518363ffffffff167c0100000000000000000000000000000000000000000000000000000000028152600401808373ffffffffffffffffffffffffffffffffffffffff1673ffffffffffffffffffffffffffffffffffffffff16815260200182815260200192505050600060405180830381600087803b1580156106df57600080fd5b505af11580156106f3573d6000803e3d6000fd5b5050505060018081111561070357fe5b7fce5a9b86edd3b998c3948a7934c7ecf7dba73c4c5bcf56cf576bca4aa2beeb3088888842898989604051808873ffffffffffffffffffffffffffffffffffffffff1673ffffffffffffffffffffffffffffffffffffffff1681526020018773ffffffffffffffffffffffffffffffffffffffff1673ffffffffffffffffffffffffffffffffffffffff168152602001868152602001858152602001848152602001806020018281038252848482818152602001925080828437600081840152601f19601f8201169050808301925050509850505050505050505060405180910390a250505050505050565b60026020528160005260406000206020528060005260406000206000915091509054906101000a900460ff1681565b60001515600260003373ffffffffffffffffffffffffffffffffffffffff1673ffffffffffffffffffffffffffffffffffffffff168152602001908152602001600020600085815260200190815260200160002060009054906101000a900460ff1615151415156108f7576040517f08c379a000000000000000000000000000000000000000000000000000000000815260040180806020018281038252601a8152602001807f7472616e7366657220616c72656164792070726f63657373656400000000000081525060200191505060405180910390fd5b6001600260003373ffffffffffffffffffffffffffffffffffffffff1673ffffffffffffffffffffffffffffffffffffffff168152602001908152602001600020600085815260200190815260200160002060006101000a81548160ff021916908315150217905550600160009054906101000a900473ffffffffffffffffffffffffffffffffffffffff1673ffffffffffffffffffffffffffffffffffffffff16639dc29fac33866040518363ffffffff167c0100000000000000000000000000000000000000000000000000000000028152600401808373ffffffffffffffffffffffffffffffffffffffff1673ffffffffffffffffffffffffffffffffffffffff16815260200182815260200192505050600060405180830381600087803b158015610a2557600080fd5b505af1158015610a39573d6000803e3d6000fd5b5050505060006001811115610a4a57fe5b7fce5a9b86edd3b998c3948a7934c7ecf7dba73c4c5bcf56cf576bca4aa2beeb3033878742888888604051808873ffffffffffffffffffffffffffffffffffffffff1673ffffffffffffffffffffffffffffffffffffffff1681526020018773ffffffffffffffffffffffffffffffffffffffff1673ffffffffffffffffffffffffffffffffffffffff168152602001868152602001858152602001848152602001806020018281038252848482818152602001925080828437600081840152601f19601f8201169050808301925050509850505050505050505060405180910390a25050505050565b6000809054906101000a900473ffffffffffffffffffffffffffffffffffffffff1681565b600160009054906101000a900473ffffffffffffffffffffffffffffffffffffffff1681565b60008160405160200180807f19457468657265756d205369676e6564204d6573736167653a0a333200000000815250601c01828152602001915050604051602081830303815290604052805190602001209050919050565b600080600080610be685610c64565b80935081945082955050505060018684848460405160008152602001604052604051808581526020018460ff1660ff1681526020018381526020018281526020019450505050506020604051602081039080840390855afa158015610c4f573d6000803e3d6000fd5b50505060206040510351935050505092915050565b600080600060418451141515610c7957600080fd5b60008060006020870151925060408701519150606087015160001a9050808383955095509550505050919390925056fea165627a7a72305820737cf7741e6f443e6d770ffbcf8212d6ef19beaa927e51b25299465ca243368b0029",
  "source": "pragma solidity ^0.5.0;\n\nimport '@openzeppelin/contracts/token/ERC20/IERC20.sol';\nimport './Itoken.sol';\n\ncontract BridgeBase {\n  address public admin;\n  IToken public token;\n  mapping(address => mapping(uint => bool)) public processedNonces;\n\n  enum Step { Burn, Mint }\n  event Transfer(\n    address from,\n    address to,\n    uint amount,\n    uint date,\n    uint nonce,\n    bytes signature,\n    Step indexed step\n  );\n\n  constructor(address _token) public {\n    admin = msg.sender;\n    token = IToken(_token);\n  }\n\n  function burn(address to, uint amount, uint nonce, bytes calldata signature) external {\n    require(processedNonces[msg.sender][nonce] == false, 'transfer already processed');\n    processedNonces[msg.sender][nonce] = true;\n    token.burn(msg.sender, amount);\n    emit Transfer(\n      msg.sender,\n      to,\n      amount,\n      block.timestamp,\n      nonce,\n      signature,\n      Step.Burn\n    );\n  }\n\n  function mint(\n    address from, \n    address to, \n    uint amount, \n    uint nonce,\n    bytes calldata signature\n  ) external {\n    bytes32 message = prefixed(keccak256(abi.encodePacked(\n      from, \n      to, \n      amount,\n      nonce\n    )));\n    require(recoverSigner(message, signature) == from , 'wrong signature');\n    require(processedNonces[from][nonce] == false, 'transfer already processed');\n    processedNonces[from][nonce] = true;\n    token.mint(to, amount);\n    emit Transfer(\n      from,\n      to,\n      amount,\n      block.timestamp,\n      nonce,\n      signature,\n      Step.Mint\n    );\n  }\n\n  function prefixed(bytes32 hash) internal pure returns (bytes32) {\n    return keccak256(abi.encodePacked(\n      '\\x19Ethereum Signed Message:\\n32', \n      hash\n    ));\n  }\n\n  function recoverSigner(bytes32 message, bytes memory sig)\n    internal\n    pure\n    returns (address)\n  {\n    uint8 v;\n    bytes32 r;\n    bytes32 s;\n  \n    (v, r, s) = splitSignature(sig);\n  \n    return ecrecover(message, v, r, s);\n  }\n\n  function splitSignature(bytes memory sig)\n    internal\n    pure\n    returns (uint8, bytes32, bytes32)\n  {\n    require(sig.length == 65);\n  \n    bytes32 r;\n    bytes32 s;\n    uint8 v;\n  \n    assembly {\n        // first 32 bytes, after the length prefix\n        r := mload(add(sig, 32))\n        // second 32 bytes\n        s := mload(add(sig, 64))\n        // final byte (first byte of the next 32 bytes)\n        v := byte(0, mload(add(sig, 96)))\n    }\n  \n    return (v, r, s);\n  }\n}\n",
  "sourcePath": "/Users/vishnukchitti/dev/truffle-bsc-side/contracts/BridgeBase.sol",
  "compiler": {
    "name": "solc",
    "version": "0.5.0+commit.1d4f565a.Emscripten.clang"
  },
  "schemaVersion": "3.4.11",
  "updatedAt": "2023-02-28T01:07:41.213Z",
  "devdoc": {
    "methods": {}
  },
  "userdoc": {
    "methods": {}
  }
}